{
	"data": {
		"bytecode": {
			"linkReferences": {},
			"object": "60806040526040518060400160405280601a81526020017f546865207061696e2077696c6c20626520776f7274682069742e0000000000008152506000908051906020019061004f9291906100dd565b506040518060400160405280601a81526020017f426c6f636b636861696e2c206d61726b206d7920776f7264732e0000000000008152506001908051906020019061009b9291906100dd565b506040518060600160405280603181526020016104f060319139600290805190602001906100ca9291906100dd565b503480156100d757600080fd5b506101e1565b8280546100e990610180565b90600052602060002090601f01602090048101928261010b5760008555610152565b82601f1061012457805160ff1916838001178555610152565b82800160010185558215610152579182015b82811115610151578251825591602001919060010190610136565b5b50905061015f9190610163565b5090565b5b8082111561017c576000816000905550600101610164565b5090565b6000600282049050600182168061019857607f821691505b602082108114156101ac576101ab6101b2565b5b50919050565b7f4e487b7100000000000000000000000000000000000000000000000000000000600052602260045260246000fd5b610300806101f06000396000f3fe608060405234801561001057600080fd5b506004361061002b5760003560e01c8063de16659114610030575b600080fd5b61003861004e565b604051610045919061019e565b60405180910390f35b606060006001600260405160200161006893929190610157565b604051602081830303815290604052905090565b6000610087826101d5565b61009181856101e0565b93506100a18185602086016101fc565b6100aa81610290565b840191505092915050565b600081546100c28161022f565b6100cc81866101f1565b945060018216600081146100e757600181146100f85761012b565b60ff1983168652818601935061012b565b610101856101c0565b60005b8381101561012357815481890152600182019150602081019050610104565b838801955050505b50505092915050565b60006101416001836101f1565b915061014c826102a1565b600182019050919050565b600061016382866100b5565b915061016e82610134565b915061017a82856100b5565b915061018582610134565b915061019182846100b5565b9150819050949350505050565b600060208201905081810360008301526101b8818461007c565b905092915050565b60008190508160005260206000209050919050565b600081519050919050565b600082825260208201905092915050565b600081905092915050565b60005b8381101561021a5780820151818401526020810190506101ff565b83811115610229576000848401525b50505050565b6000600282049050600182168061024757607f821691505b6020821081141561025b5761025a610261565b5b50919050565b7f4e487b7100000000000000000000000000000000000000000000000000000000600052602260045260246000fd5b6000601f19601f8301169050919050565b7f200000000000000000000000000000000000000000000000000000000000000060008201525056fea26469706673582212207b65e2f853553980784a1948502c1e66aeaf913e429998a6af48d42c25625e6664736f6c634300080700334920616d206675636b696e6720636f6d696e6720746f2067657420796f752e204173696d20536865696b682e20f09f9a80",
			"opcodes": "PUSH1 0x80 PUSH1 0x40 MSTORE PUSH1 0x40 MLOAD DUP1 PUSH1 0x40 ADD PUSH1 0x40 MSTORE DUP1 PUSH1 0x1A DUP2 MSTORE PUSH1 0x20 ADD PUSH32 0x546865207061696E2077696C6C20626520776F7274682069742E000000000000 DUP2 MSTORE POP PUSH1 0x0 SWAP1 DUP1 MLOAD SWAP1 PUSH1 0x20 ADD SWAP1 PUSH2 0x4F SWAP3 SWAP2 SWAP1 PUSH2 0xDD JUMP JUMPDEST POP PUSH1 0x40 MLOAD DUP1 PUSH1 0x40 ADD PUSH1 0x40 MSTORE DUP1 PUSH1 0x1A DUP2 MSTORE PUSH1 0x20 ADD PUSH32 0x426C6F636B636861696E2C206D61726B206D7920776F7264732E000000000000 DUP2 MSTORE POP PUSH1 0x1 SWAP1 DUP1 MLOAD SWAP1 PUSH1 0x20 ADD SWAP1 PUSH2 0x9B SWAP3 SWAP2 SWAP1 PUSH2 0xDD JUMP JUMPDEST POP PUSH1 0x40 MLOAD DUP1 PUSH1 0x60 ADD PUSH1 0x40 MSTORE DUP1 PUSH1 0x31 DUP2 MSTORE PUSH1 0x20 ADD PUSH2 0x4F0 PUSH1 0x31 SWAP2 CODECOPY PUSH1 0x2 SWAP1 DUP1 MLOAD SWAP1 PUSH1 0x20 ADD SWAP1 PUSH2 0xCA SWAP3 SWAP2 SWAP1 PUSH2 0xDD JUMP JUMPDEST POP CALLVALUE DUP1 ISZERO PUSH2 0xD7 JUMPI PUSH1 0x0 DUP1 REVERT JUMPDEST POP PUSH2 0x1E1 JUMP JUMPDEST DUP3 DUP1 SLOAD PUSH2 0xE9 SWAP1 PUSH2 0x180 JUMP JUMPDEST SWAP1 PUSH1 0x0 MSTORE PUSH1 0x20 PUSH1 0x0 KECCAK256 SWAP1 PUSH1 0x1F ADD PUSH1 0x20 SWAP1 DIV DUP2 ADD SWAP3 DUP3 PUSH2 0x10B JUMPI PUSH1 0x0 DUP6 SSTORE PUSH2 0x152 JUMP JUMPDEST DUP3 PUSH1 0x1F LT PUSH2 0x124 JUMPI DUP1 MLOAD PUSH1 0xFF NOT AND DUP4 DUP1 ADD OR DUP6 SSTORE PUSH2 0x152 JUMP JUMPDEST DUP3 DUP1 ADD PUSH1 0x1 ADD DUP6 SSTORE DUP3 ISZERO PUSH2 0x152 JUMPI SWAP2 DUP3 ADD JUMPDEST DUP3 DUP2 GT ISZERO PUSH2 0x151 JUMPI DUP3 MLOAD DUP3 SSTORE SWAP2 PUSH1 0x20 ADD SWAP2 SWAP1 PUSH1 0x1 ADD SWAP1 PUSH2 0x136 JUMP JUMPDEST JUMPDEST POP SWAP1 POP PUSH2 0x15F SWAP2 SWAP1 PUSH2 0x163 JUMP JUMPDEST POP SWAP1 JUMP JUMPDEST JUMPDEST DUP1 DUP3 GT ISZERO PUSH2 0x17C JUMPI PUSH1 0x0 DUP2 PUSH1 0x0 SWAP1 SSTORE POP PUSH1 0x1 ADD PUSH2 0x164 JUMP JUMPDEST POP SWAP1 JUMP JUMPDEST PUSH1 0x0 PUSH1 0x2 DUP3 DIV SWAP1 POP PUSH1 0x1 DUP3 AND DUP1 PUSH2 0x198 JUMPI PUSH1 0x7F DUP3 AND SWAP2 POP JUMPDEST PUSH1 0x20 DUP3 LT DUP2 EQ ISZERO PUSH2 0x1AC JUMPI PUSH2 0x1AB PUSH2 0x1B2 JUMP JUMPDEST JUMPDEST POP SWAP2 SWAP1 POP JUMP JUMPDEST PUSH32 0x4E487B7100000000000000000000000000000000000000000000000000000000 PUSH1 0x0 MSTORE PUSH1 0x22 PUSH1 0x4 MSTORE PUSH1 0x24 PUSH1 0x0 REVERT JUMPDEST PUSH2 0x300 DUP1 PUSH2 0x1F0 PUSH1 0x0 CODECOPY PUSH1 0x0 RETURN INVALID PUSH1 0x80 PUSH1 0x40 MSTORE CALLVALUE DUP1 ISZERO PUSH2 0x10 JUMPI PUSH1 0x0 DUP1 REVERT JUMPDEST POP PUSH1 0x4 CALLDATASIZE LT PUSH2 0x2B JUMPI PUSH1 0x0 CALLDATALOAD PUSH1 0xE0 SHR DUP1 PUSH4 0xDE166591 EQ PUSH2 0x30 JUMPI JUMPDEST PUSH1 0x0 DUP1 REVERT JUMPDEST PUSH2 0x38 PUSH2 0x4E JUMP JUMPDEST PUSH1 0x40 MLOAD PUSH2 0x45 SWAP2 SWAP1 PUSH2 0x19E JUMP JUMPDEST PUSH1 0x40 MLOAD DUP1 SWAP2 SUB SWAP1 RETURN JUMPDEST PUSH1 0x60 PUSH1 0x0 PUSH1 0x1 PUSH1 0x2 PUSH1 0x40 MLOAD PUSH1 0x20 ADD PUSH2 0x68 SWAP4 SWAP3 SWAP2 SWAP1 PUSH2 0x157 JUMP JUMPDEST PUSH1 0x40 MLOAD PUSH1 0x20 DUP2 DUP4 SUB SUB DUP2 MSTORE SWAP1 PUSH1 0x40 MSTORE SWAP1 POP SWAP1 JUMP JUMPDEST PUSH1 0x0 PUSH2 0x87 DUP3 PUSH2 0x1D5 JUMP JUMPDEST PUSH2 0x91 DUP2 DUP6 PUSH2 0x1E0 JUMP JUMPDEST SWAP4 POP PUSH2 0xA1 DUP2 DUP6 PUSH1 0x20 DUP7 ADD PUSH2 0x1FC JUMP JUMPDEST PUSH2 0xAA DUP2 PUSH2 0x290 JUMP JUMPDEST DUP5 ADD SWAP2 POP POP SWAP3 SWAP2 POP POP JUMP JUMPDEST PUSH1 0x0 DUP2 SLOAD PUSH2 0xC2 DUP2 PUSH2 0x22F JUMP JUMPDEST PUSH2 0xCC DUP2 DUP7 PUSH2 0x1F1 JUMP JUMPDEST SWAP5 POP PUSH1 0x1 DUP3 AND PUSH1 0x0 DUP2 EQ PUSH2 0xE7 JUMPI PUSH1 0x1 DUP2 EQ PUSH2 0xF8 JUMPI PUSH2 0x12B JUMP JUMPDEST PUSH1 0xFF NOT DUP4 AND DUP7 MSTORE DUP2 DUP7 ADD SWAP4 POP PUSH2 0x12B JUMP JUMPDEST PUSH2 0x101 DUP6 PUSH2 0x1C0 JUMP JUMPDEST PUSH1 0x0 JUMPDEST DUP4 DUP2 LT ISZERO PUSH2 0x123 JUMPI DUP2 SLOAD DUP2 DUP10 ADD MSTORE PUSH1 0x1 DUP3 ADD SWAP2 POP PUSH1 0x20 DUP2 ADD SWAP1 POP PUSH2 0x104 JUMP JUMPDEST DUP4 DUP9 ADD SWAP6 POP POP POP JUMPDEST POP POP POP SWAP3 SWAP2 POP POP JUMP JUMPDEST PUSH1 0x0 PUSH2 0x141 PUSH1 0x1 DUP4 PUSH2 0x1F1 JUMP JUMPDEST SWAP2 POP PUSH2 0x14C DUP3 PUSH2 0x2A1 JUMP JUMPDEST PUSH1 0x1 DUP3 ADD SWAP1 POP SWAP2 SWAP1 POP JUMP JUMPDEST PUSH1 0x0 PUSH2 0x163 DUP3 DUP7 PUSH2 0xB5 JUMP JUMPDEST SWAP2 POP PUSH2 0x16E DUP3 PUSH2 0x134 JUMP JUMPDEST SWAP2 POP PUSH2 0x17A DUP3 DUP6 PUSH2 0xB5 JUMP JUMPDEST SWAP2 POP PUSH2 0x185 DUP3 PUSH2 0x134 JUMP JUMPDEST SWAP2 POP PUSH2 0x191 DUP3 DUP5 PUSH2 0xB5 JUMP JUMPDEST SWAP2 POP DUP2 SWAP1 POP SWAP5 SWAP4 POP POP POP POP JUMP JUMPDEST PUSH1 0x0 PUSH1 0x20 DUP3 ADD SWAP1 POP DUP2 DUP2 SUB PUSH1 0x0 DUP4 ADD MSTORE PUSH2 0x1B8 DUP2 DUP5 PUSH2 0x7C JUMP JUMPDEST SWAP1 POP SWAP3 SWAP2 POP POP JUMP JUMPDEST PUSH1 0x0 DUP2 SWAP1 POP DUP2 PUSH1 0x0 MSTORE PUSH1 0x20 PUSH1 0x0 KECCAK256 SWAP1 POP SWAP2 SWAP1 POP JUMP JUMPDEST PUSH1 0x0 DUP2 MLOAD SWAP1 POP SWAP2 SWAP1 POP JUMP JUMPDEST PUSH1 0x0 DUP3 DUP3 MSTORE PUSH1 0x20 DUP3 ADD SWAP1 POP SWAP3 SWAP2 POP POP JUMP JUMPDEST PUSH1 0x0 DUP2 SWAP1 POP SWAP3 SWAP2 POP POP JUMP JUMPDEST PUSH1 0x0 JUMPDEST DUP4 DUP2 LT ISZERO PUSH2 0x21A JUMPI DUP1 DUP3 ADD MLOAD DUP2 DUP5 ADD MSTORE PUSH1 0x20 DUP2 ADD SWAP1 POP PUSH2 0x1FF JUMP JUMPDEST DUP4 DUP2 GT ISZERO PUSH2 0x229 JUMPI PUSH1 0x0 DUP5 DUP5 ADD MSTORE JUMPDEST POP POP POP POP JUMP JUMPDEST PUSH1 0x0 PUSH1 0x2 DUP3 DIV SWAP1 POP PUSH1 0x1 DUP3 AND DUP1 PUSH2 0x247 JUMPI PUSH1 0x7F DUP3 AND SWAP2 POP JUMPDEST PUSH1 0x20 DUP3 LT DUP2 EQ ISZERO PUSH2 0x25B JUMPI PUSH2 0x25A PUSH2 0x261 JUMP JUMPDEST JUMPDEST POP SWAP2 SWAP1 POP JUMP JUMPDEST PUSH32 0x4E487B7100000000000000000000000000000000000000000000000000000000 PUSH1 0x0 MSTORE PUSH1 0x22 PUSH1 0x4 MSTORE PUSH1 0x24 PUSH1 0x0 REVERT JUMPDEST PUSH1 0x0 PUSH1 0x1F NOT PUSH1 0x1F DUP4 ADD AND SWAP1 POP SWAP2 SWAP1 POP JUMP JUMPDEST PUSH32 0x2000000000000000000000000000000000000000000000000000000000000000 PUSH1 0x0 DUP3 ADD MSTORE POP JUMP INVALID LOG2 PUSH5 0x6970667358 0x22 SLT KECCAK256 PUSH28 0x65E2F853553980784A1948502C1E66AEAF913E429998A6AF48D42C25 PUSH3 0x5E6664 PUSH20 0x6F6C634300080700334920616D206675636B696E PUSH8 0x20636F6D696E6720 PUSH21 0x6F2067657420796F752E204173696D20536865696B PUSH9 0x2E20F09F9A80000000 "
		},
		"gasEstimates": {
			"creation": {
				"codeDepositCost": "153600",
				"executionCost": "infinite",
				"totalCost": "infinite"
			},
			"external": {
				"myVow()": "infinite"
			}
		},
		"methodIdentifiers": {
			"myVow()": "de166591"
		}
	},
	"abi": [
		{
			"inputs": [],
			"name": "myVow",
			"outputs": [
				{
					"internalType": "string",
					"name": "",
					"type": "string"
				}
			],
			"stateMutability": "view",
			"type": "function"
		}
	]
}